:100000000C941E010C9446010C9446010C94A70A12
:100010000C94CB0A0C94EF0A0C9446010C94460104
:100020000C9446010C9446010C9446010C94460134
:100030000C9446010C9446010C9446010C94460124
:100040000C9425030C9446010C94E3070C942608A9
:100050000C9446010C9446010C9446010C94460104
:100060000C9446010C944601EB0FFE0F0E1021106C
:10007000291055105D1065106D10741074107410F7
:100080007410741074107410741074107410741050
:100090007410741074107410741074107410741040
:1000A0007410741074107410EB0FF70FFE0F0E1015
:1000B000211029103C1044104C1007634236B79BA6
:1000C000D8A71A39685618AEBAAB558C1D3CB7CCB8
:1000D0005763BD6DEDFD753EF6177231BF00000030
:1000E000803F08000000BE922449123EABAAAA2A13
:1000F000BECDCCCC4C3E00000080BEABAAAAAA3E2E
:1001000000000000BF000000803F00000000000869
:100110004178D3BB4387D1133D190E3CC3BD428206
:10012000AD2B3E68EC8276BED98FE1A93E4C80EFC4
:10013000FFBE01C4FF7F3F00000000000000000779
:10014000000201000003040600000000000000009F
:10015000010204081020408001020408102001025E
:10016000040810200404040404040404020202022B
:100170000202030303030303000000002300260020
:10018000290000000000250028002B0000000000CE
:10019000240027002A0000C2010001001100110004
:1001A0000C0000E100000A00250025002100009657
:1001B00000001900390039003600127A00001F00D3
:1001C0004600460044008070000022004D004D00B3
:1001D0004A00004B00003600750075007200403880
:1001E00000004A009C009C009900802500007200DD
:1001F000EC00EC00E900C0120000E900DA01DA01CD
:10020000D70160090000D701B603B603B303B004F9
:100210000000B3036E076E076B07580200006E07FD
:10022000DC0EDC0ED80E2C010000DC0EC11DC11D41
:10023000BE1DC102E2087B0CCC027F0C11241FBE44
:10024000CFEFD8E0DEBFCDBF11E0A0E0B1E0E6E344
:10025000FBE202C005900D92A039B107D9F723E067
:10026000A0E9B1E001C01D92A234B207E1F712E0AB
:10027000C8E3D2E004C02297FE010E945415C233A5
:10028000D107C9F70E9444070C9471110C94000027
:10029000CF93DF9340E855E260E070E084E392E0C2
:1002A0000E94610861E08DE00E94CA0460E08DE078
:1002B0000E94030564EF71E080E090E00E949E03DD
:1002C00082E293E00E94830C63E082E293E00E946A
:1002D0004A0D40E855E260E070E08FE092E00E9455
:1002E000910B60E089E00E94CA04C3E0D0E061E0C5
:1002F0008DE00E94030564EF71E080E090E00E94D1
:100300009E0360E08DE00E94030564EF71E080E0F1
:1003100090E00E949E032197209749F7DF91CF91AB
:10032000089582E293E00E94830C64EF71E080E024
:1003300090E00E949E0382E293E00E94BB0C88231F
:10034000B9F061E08DE00E9403054CE060E971E0E6
:1003500082E293E00E94F70C60E0811104C08DE01E
:100360000E94030505C08DE00E94030581E0089509
:1003700080E00895CF92DF92EF92FF92CF93DF93C8
:10038000CBE0D0E08EE00E94840464EF71E080E076
:1003900090E00E949E0321972097A1F78EE00E9493
:1003A0008404BC01882777FD8095982F0E948012D5
:1003B00020E030E040EA55E40E94E5116B017C0149
:1003C0009B01AC0160E070E080EA90E40E947C1147
:1003D000A70196010E94E51125E83BEE4AE252E4AE
:1003E0000E94E51120E030E048EC52E40E946013E6
:1003F0000E944D12709391016093900181E0DF9112
:10040000CF91FF90EF90DF90CF9008954F925F9241
:100410006F927F928F929F92AF92BF92CF92DF9214
:10042000EF92FF920E946F034B015C01C12CD12C13
:1004300076010E946F03409000015090010160908E
:10044000020170900301681979098A099B0946160F
:1004500057066806790668F020E432E44FE050E081
:1004600060E089E00E94FF03C60ED71EE81EF91E59
:10047000E0CFC701B6010E947E126B017C01C3016F
:10048000B2010E947E1220E030E040E251E40E947E
:1004900060139B01AC01C701B6010E94E5116B011D
:1004A0007C0120E030E040E450E40E94C3132DECD6
:1004B0003CEC4CE85FE30E9460134B015C01A70138
:1004C0009601C701B6010E94601323E333E343E7BB
:1004D00050E40E9460139B01AC01C501B4010E946D
:1004E0007C114B015C0120E030E042E054E4C701A4
:1004F000B6010E9460139B01AC01C501B4010E94CA
:100500007D1122E538EB4EE15FE30E947D116B0126
:100510007C0122E030E0AB01BC0184E392E00E9468
:10052000320720E030E0A901C701B6010E9455134F
:1005300087FD78CF20E030E04AEF55E4C701B601EF
:100540000E94E11118160CF46DCF20E030E048EC69
:1005500052E4C701B6010E9460130E944D127093CD
:1005600093016093920181E0FF90EF90DF90CF9034
:10057000BF90AF909F908F907F906F905F904F90C3
:10058000089520E043E062E08FE092E00E94610B7A
:100590008CE991E00C94760D8FE092E00C94620C63
:1005A000CF93DF9300D000D0CDB7DEB78FE092E0DD
:1005B0000E94AD098FE092E00E947309892B51F0EF
:1005C0008FE092E00E943809682F8CE991E00E9448
:1005D0007D10F0CF9E012F5F3F4F48E951E064E965
:1005E00071E08CE991E00E94051189819A81AB81CB
:1005F000BC8189389341A105B10540F065E071E007
:1006000084E392E00E94920580E007C06DE171E012
:1006100084E392E00E94920581E00F900F900F908A
:100620000F90DF91CF9108950E94D002882361F04E
:100630000E94BA010E9406020E94910160E576E4E0
:1006400080E090E00C949E0308951F920F920FB6E5
:100650000F9211242F933F938F939F93AF93BF9348
:1006600080912C0290912D02A0912E02B0912F0228
:1006700030912B0223E0230F2D3720F40196A11D8A
:10068000B11D05C026E8230F0296A11DB11D2093C0
:100690002B0280932C0290932D02A0932E02B093F4
:1006A0002F028091300290913102A0913202B091DC
:1006B00033020196A11DB11D809330029093310247
:1006C000A0933202B0933302BF91AF919F918F916B
:1006D0003F912F910F900FBE0F901F9018952FB73D
:1006E000F89460912C0270912D0280912E029091CD
:1006F0002F022FBF08953FB7F89480913002909158
:100700003102A0913202B091330226B5A89B05C0F8
:100710002F3F19F00196A11DB11D3FBF6627782F0D
:10072000892F9A2F620F711D811D911D42E0660F66
:10073000771F881F991F4A95D1F70895CF92DF92AE
:10074000EF92FF92CF93DF936B017C010E947B03BA
:10075000EB01C114D104E104F10479F00E947B03A0
:100760006C1B7D0B683E7340A0F381E0C81AD10872
:10077000E108F108C851DC4FECCFDF91CF91FF9039
:10078000EF90DF90CF900895789484B5826084BD17
:1007900084B5816084BD85B5826085BD85B5816085
:1007A00085BDEEE6F0E0808181608083E1E8F0E0E5
:1007B0001082808182608083808181608083E0E814
:1007C000F0E0808181608083E1EBF0E080818460F3
:1007D0008083E0EBF0E0808181608083EAE7F0E0F5
:1007E0008081846080838081826080838081816059
:1007F00080838081806880831092C1000895CF92A9
:10080000DF92EF92FF920F931F93CF93DF9390E0CD
:10081000FC01E05BFE4FD491FC01EC59FE4F74915A
:10082000611102C0C0E001C0CD2FDA01C901BF7063
:10083000672F70E0660F771F68587E4F00E010E06A
:100840009801FB01E590F490F70140814D234C1392
:100850001EC0680179014FEFC41AD40AE40AF40AF1
:10086000081719072A073B0709F442C097018601B8
:10087000E8CF68017901FFEFCF1ADF0AEF0AFF0A1C
:10088000081719072A073B0799F197018601FB0111
:10089000E590F490F70140814D234C13EACF801B83
:1008A000910BA20BB30B20E030E0A901FB01E59016
:1008B000F490F701F080FD22FC120AC028173907D6
:1008C0004A075B07A9F02F5F3F4F4F4F5F4FEECFB7
:1008D000A5E1B0E00E945815605F7F4F8F4F9F4F9A
:1008E00024E096958795779567952A95D1F703C06B
:1008F00060E070E0CB01DF91CF911F910F91FF90ED
:10090000EF90DF90CF9008958E3008F08E50877072
:100910002091040190E4299F90011124822B80935F
:100920007C0080917A00806480937A0080917A00C4
:1009300086FDFCCF809178002091790090E0922B89
:100940000895833081F028F4813099F08230A1F04D
:1009500008958630A9F08730B9F08430D1F48091C1
:1009600080008F7D03C0809180008F77809380000E
:10097000089584B58F7702C084B58F7D84BD0895B6
:100980008091B0008F7703C08091B0008F7D8093FD
:10099000B0000895CF93DF9390E0FC01E05BFE4F41
:1009A0002491FC01EC59FE4F8491882349F190E099
:1009B000880F991FFC01E457FE4FA591B4918E5703
:1009C0009E4FFC01C591D4919FB7611108C0F89466
:1009D0008C91209582238C93888182230AC0623077
:1009E00051F4F8948C91322F309583238C93888125
:1009F000822B888304C0F8948C91822B8C939FBFA8
:100A0000DF91CF9108950F931F93CF93DF931F92A0
:100A1000CDB7DEB7282F30E0F901E45CFE4F8491BA
:100A2000F901E05BFE4F1491F901EC59FE4F04917E
:100A30000023C9F0882321F069830E94A104698101
:100A4000E02FF0E0EE0FFF1FEE57FE4FA591B4919F
:100A50009FB7F8948C91611103C01095812301C058
:100A6000812B8C939FBF0F90DF91CF911F910F919E
:100A70000895CF92DF92EF92FF920F931F93CF933F
:100A8000DF936C017A01EB01E60EF71E00E010E047
:100A9000CE15DF0561F06991D601ED91FC910190D1
:100AA000F081E02DC6010995080F191FF1CFC8018B
:100AB000DF91CF911F910F91FF90EF90DF90CF903A
:100AC00008956115710581F0DB010D900020E9F7B3
:100AD000AD0141505109461B570BDC01ED91FC91D2
:100AE0000280F381E02D099480E090E00895DC011C
:100AF000ED91FC910190F081E02D09940F931F93EB
:100B0000CF93DF93EC016DE00E9477058C016AE0E2
:100B1000CE010E947705800F911FDF91CF911F9129
:100B20000F9108950F931F93CF93DF93EC010E94D1
:100B300061058C01CE010E947E05800F911FDF911F
:100B4000CF911F910F9108958F929F92AF92BF9274
:100B5000CF92DF92EF92FF920F931F93CF93DF9389
:100B6000CDB7DEB7A1970FB6F894DEBF0FBECDBFED
:100B70007C01C42EE52FCB01D22E19A221E02D1528
:100B800010F02AE0D22E8E010F5D1F4F8D2C912C7C
:100B9000A12CB12C6C2D7E2FA50194010E94301543
:100BA0008C2DD29E80191124015011098A3014F421
:100BB000805D01C0895CF801808321153105410504
:100BC000510521F0C22EE32FCA01E4CFB801C701BD
:100BD0000E946105A1960FB6F894DEBF0FBECDBF8F
:100BE000DF91CF911F910F91FF90EF90DF90CF9009
:100BF000BF90AF909F908F900895CF92DF92EF9229
:100C0000FF920F931F93CF93DF93EC016A017B0157
:100C10002115310579F4E881F9810190F081E02D09
:100C2000642FDF91CF911F910F91FF90EF90DF9094
:100C3000CF9009942A303105E9F477FF1AC06DE2AC
:100C40000E9477058C0144275527BA014C195D098C
:100C50006E097F092AE0CE010E94A405800F911F32
:100C6000DF91CF911F910F91FF90EF90DF90CF9088
:100C700008952AE0B701A601CE01DF91CF911F911F
:100C80000F91FF90EF90DF90CF900C94A4054F92BE
:100C90005F926F927F928F929F92AF92BF92CF920C
:100CA000DF92EF92FF920F931F93CF93DF93EC01AC
:100CB0006A017B01B22E9A01AB01C701B6010E9405
:100CC0000F14882319F061E371E027C02601370172
:100CD000E89477F82FEF3FEF4FE75FE7C301B201EA
:100CE0000E940F1481110DC02FEF3FEF4FE75FE718
:100CF000C301B2010E94E11118161CF465E371E012
:100D00000CC02FEF3FEF4FE75FE4C701B6010E9431
:100D100055131816ACF469E371E0CE01DF91CF9161
:100D20001F910F91FF90EF90DF90CF90BF90AF9009
:100D30009F908F907F906F905F904F900C94610583
:100D40002FEF3FEF4FE75FECC701B6010E94E111C3
:100D500087FDE1CF20E030E0A901C701B6010E9484
:100D6000E11187FF0AC06DE2CE010E9477058C0178
:100D7000F7FAF094F7F8F09402C000E010E0A12C2C
:100D800060E070E080E09FE3AB1441F020E030E0F1
:100D900040E251E40E94E511A394F6CF9B01AC011F
:100DA000C701B6010E947D116B017C010E945212A5
:100DB0002B013C010E947E129B01AC01C701B601D0
:100DC0000E947C116B017C012AE0B301A201CE01DB
:100DD0000E94A405080F191FBB2039F06DE371E0D4
:100DE000CE010E946105080F191F7B2C772041F16D
:100DF00020E030E040E251E4C701B6010E946013F8
:100E00006B017C010E944D124B01AA2497FCA09417
:100E1000BA2C2AE030E0B501A401CE010E94FD0504
:100E2000080F191FC501B4010E9480129B01AC017B
:100E3000C701B6010E947C116B017C017A94D6CF68
:100E4000C801DF91CF911F910F91FF90EF90DF903C
:100E5000CF90BF90AF909F908F907F906F905F905A
:100E60004F9008950F931F93CF93DF93EC010E944F
:100E700047068C01CE010E947E05800F911FDF91F5
:100E8000CF911F910F9108950E94C4030E944801C1
:100E9000CDE1D8E00E9414032097E1F30E941D08E1
:100EA000F9CFFC0124853585F901E05CFF4F808195
:100EB0009181329620813181821B930B8F73992708
:100EC0000895FC0184859585FC01E05CFF4F40811D
:100ED00051813296208131814217530741F00190B0
:100EE000F081E02DE80FF91F808190E008958FEFE9
:100EF0009FEF0895FC0184859585FC01E05CFF4F20
:100F0000408151813296208131814217530779F017
:100F1000A081B181A80FB91F8C91208131812F5FF1
:100F20003F4F2F7333273183208390E008958FEF55
:100F30009FEF0895FC0181A1882329F0A489B58938
:100F40008C9186FFFBCF11A20895CF93DF93FC0114
:100F500026853785D901A05CBF4F8D919C91119753
:100F600001968F739927E901CE5BDF4F4881598144
:100F700084179507D9F30D90BC91A02DA20FB31F34
:100F80006C93A685B785A05CBF4F11969C938E93FA
:100F9000A689B7892C9181E090E0078C02C0880F68
:100FA000991F0A94E2F7282B2C9381E081A30488EF
:100FB000F589E02D80818064808381E090E0DF917D
:100FC000CF91089508951F920F920FB60F9211249A
:100FD0002F933F934F938F939F93EF93FF93809122
:100FE000C00082FD1CC04091C6008091DA02909141
:100FF000DB0201968F7399272091DC023091DD028C
:101000008217930771F0E091DA02F091DB02E65665
:10101000FD4F40839093DB028093DA0202C08091FF
:10102000C600FF91EF919F918F914F913F912F912A
:101030000F900FBE0F901F90189584E392E00E94CE
:101040005107892B11F00C94E20708951F920F921B
:101050000FB60F9211242F933F938F939F93EF938B
:10106000FF9320919602309197028091980290917F
:1010700099022817390731F48091C1008F7D809340
:10108000C10014C0E0919802F0919902EA5AFD4F14
:101090002081809198029091990201968F739927EF
:1010A00090939902809398022093C600FF91EF914C
:1010B0009F918F913F912F910F900FBE0F901F9096
:1010C0001895CF92DF92EF92FF92CF93DF93EC01CE
:1010D0006A017B01411581EE580761057105F9F040
:1010E000EC89FD8981E090E008A002C0880F991F7B
:1010F0000A94E2F7808360E079E08DE390E0A70155
:1011000096010E9430152150310941095109569527
:10111000479537952795211580E1380798F0EC8998
:10112000FD89108260E874E88EE190E0A7019601E5
:101130000E943015215031094109510956954795B2
:1011400037952795E889F9893083EA89FB892083D7
:1011500019A2EE89FF89408181E090E09C010C8C0E
:1011600002C0220F331F0A94E2F7422B4083EE891C
:10117000FF8940819C010D8C02C0220F331F0A940D
:10118000E2F7422B4083EE89FF8940819C010E8C5F
:1011900002C0220F331F0A94E2F7422B4083EE89EC
:1011A000FF8920810F8C02C0880F991F0A94E2F7F3
:1011B000809582238083DF91CF91FF90EF90DF9025
:1011C000CF900895109237021092360288EE93E085
:1011D000A0E0B0E08093380290933902A0933A02E5
:1011E000B0933B0283E491E0909335028093340204
:1011F0008AE992E0909341028093400286E592E072
:10120000909343028093420285EC90E090934502D4
:101210008093440284EC90E09093470280934602CE
:1012200080EC90E0909349028093480281EC90E03A
:1012300090934B0280934A0282EC90E090934D028F
:1012400080934C0286EC90E090934F0280934E0284
:1012500084E08093500283E08093510287E0809382
:10126000520285E08093530281E0809354020895F6
:10127000209120033091210328173907B9F4909168
:10128000DE028091DF02981789F0E091DE02F0E043
:10129000E052FD4F80812091DE0230E02F5F3F4F12
:1012A0002F7333272093DE0290E008958FEF9FEF96
:1012B000089520912003309121032817390781F4E4
:1012C0009091DE028091DF02981751F0E091DE02EA
:1012D000F0E0E052FD4F8081992787FD90950895B9
:1012E0008FEF9FEF0895209120033091210328175D
:1012F000390771F48091DF022091DE0290E0805C7A
:101300009F4F821B910960E470E00E941C150895B4
:1013100080E090E008952091200330912103281768
:10132000390739F48FB7F8941092DF021092DE0279
:101330008FBF0895DC015196ED91FC915297208169
:1013400050968C91809582238083089520E00197A8
:101350002FEF8F3F9207D9F7089520912003309106
:1013600021032817390789F0FC01238D2E7F238F55
:101370002FB7F8941092DF021092DE0290932103AF
:10138000809320032FBF81E0089580E00895EF92BD
:10139000FF920F931F93CF93DF93EC018B8DEE851C
:1013A000FF859D8581FF04C08081892329F447C082
:1013B0008081892309F043C08B899C890E94A609FA
:1013C00008E010E0EE24E394F12C8D899E890E94C0
:1013D000A609EE85FF8580819D85892311F0FE2871
:1013E00003C08E2D8095F822EE0C015011090115D5
:1013F000110559F78F89988D0E94A6098B8D81FD63
:10140000F0948091DF022091DE0290E001968F73CC
:10141000992730E08217930779F0E091DF02F0E03E
:10142000E052FD4FF0828091DF0290E001968F73D1
:1014300099278093DF0203C08B8D81608B8FDF91B2
:10144000CF911F910F91FF90EF900895611102C00D
:101450000C949A09DC015196ED91FC9152972081F0
:1014600050968C91282B20830895DF92EF92FF9263
:101470000F931F93CF93DF93EC01E62E898D9A8D06
:10148000892B39F481E090E09B838A8380E090E0AF
:101490004DC0DFB6F8946B8D66956170CE010E94E9
:1014A000260A898D9A8D05960E94A6098B8D08E0E3
:1014B00010E0FF24F39481FF19C08F2D8E2121F0BD
:1014C000CE010E949A0904C061E0CE010E94260A62
:1014D000898D9A8D0E94A609FF0C015011090115F2
:1014E000110559F7CE010E949A0919C08F2D8E213E
:1014F00029F061E0CE010E94260A03C0CE010E94BD
:101500009A09898D9A8D0E94A609FF0C0150110934
:101510000115110559F761E0CE010E94260ADFBED0
:10152000898D9A8D0E94A60981E090E0DF91CF918C
:101530001F910F91FF90EF90DF900895809120030D
:1015400090912103009711F00C94C70908951F9200
:101550000F920FB60F9211242F933F934F935F93E7
:101560006F937F938F939F93AF93BF93EF93FF936B
:101570000E949E0AFF91EF91BF91AF919F918F9131
:101580007F916F915F914F913F912F910F900FBE7F
:101590000F901F9018951F920F920FB60F92112463
:1015A0002F933F934F935F936F937F938F939F936B
:1015B000AF93BF93EF93FF930E949E0AFF91EF9129
:1015C000BF91AF919F918F917F916F915F914F915B
:1015D0003F912F910F900FBE0F901F9018951F9263
:1015E0000F920FB60F9211242F933F934F935F9357
:1015F0006F937F938F939F93AF93BF93EF93FF93DB
:101600000E949E0AFF91EF91BF91AF919F918F91A0
:101610007F916F915F914F913F912F910F900FBEEE
:101620000F901F9018951F93CF93DF93EC01162F07
:1016300061E0812F0E94CA0461E0812F0E940305AE
:10164000812F90E0FC01E05BFE4FE491E88BFC0110
:10165000EC59FE4FE491F0E0EE0FFF1FEE57FE4F06
:10166000859194919A8B898BDF91CF911F910895E9
:101670001F93CF93DF93EC01162F60E0812F0E9420
:10168000CA048B8D81FD04C061E0812F0E94030597
:101690001C87812F90E0FC01E05BFE4FE491ED8719
:1016A000FC01EC59FE4FE491F0E0EE0FFF1FE8580B
:1016B000FE4F859194919F878E87DF91CF911F91E7
:1016C0000895FF920F931F93CF93DF93EC01F62EB3
:1016D000522F1B821A8208EE13E020E030E00C83C8
:1016E0001D832E833F8383E591E0998388831C8A41
:1016F0001B8A1E8A1D8A188E1F8A1A8E198E8B8D40
:101700008E7F50FB81F98B8F642FCE010E94130BCB
:101710006F2DCE01DF91CF911F910F91FF900C940F
:10172000380B0F931F93CF93DF93EC011A8E198E12
:10173000188E1F8A1E8A1D8AA6E9B1E080E090E01B
:10174000FD01059115912591349104171507260780
:10175000370709F031C02CE0289FF001299FF00DD8
:101760001124E656FE4F259134913C8B2B8B2CE0B7
:10177000289FF001299FF00D1124E456FE4F25917A
:1017800034913E8B2D8B2CE0289FF001299FF00D8A
:101790001124E256FE4F25913491388F2F8B2CE087
:1017A000289FF001299FF00D1124E056FE4F8591EE
:1017B00094919A8F898F08C001961C968D3091055F
:1017C00009F0BECF1C8A1B8A8F89988D892B09F45A
:1017D00043C08C858631E0F520916800883050F058
:1017E00091E08E3008F490E081E001C0880F9A9576
:1017F000EAF701C084E0822B809368002C852830B2
:1018000038F02E3040F0263148F0E0E0F0E008C03B
:10181000EDE6F0E005C0EBE6F0E002C0ECE6F0E05B
:101820003081283030F481E001C0880F2A95EAF732
:101830000DC0822F90E02E3010F4089701C00E9753
:1018400091E001C0990F8A95EAF7892F832B808355
:10185000898D9A8D0E94A609CE01DF91CF911F91AB
:101860000F910C94AD09FC014485463150F5483088
:1018700028F04E3030F4EBE6F0E005C0EDE6F0E0A5
:1018800002C0ECE6F0E05081483040F481E090E0A6
:10189000042E01C0880F0A94EAF710C0242F30E00C
:1018A0004E3018F42850310902C02E50310981E021
:1018B00090E0022E01C0880F0A94EAF780958523F4
:1018C0008083089523E531E0FC01318320830C946B
:1018D000330CCF93DF93EC0120E044E065E00E94FD
:1018E000610B4FEF5FEFBA014C8F5D8F6E8F7F8F73
:1018F000DF91CF91089582E293E00C94690C82E22B
:1019000093E00C94620CCF93DF93EC0140E855E236
:1019100060E070E00E94910B60E0CE010E94350A09
:101920006BE3CE010E94350ACE010E947309039732
:10193000DCF3CE010E943809CE010E943809CE01A5
:10194000DF91CF910C9438091F93CF93DF93EC0173
:10195000CE010E947309892BD9F3CE010E94380968
:10196000182FCE010E943809CB97D9F7812FDF912C
:10197000CF911F9108950F931F93CF93DF93EC01A5
:101980000E946F030C8D1D8D2E8D3F8D601771078A
:101990008207930758F0DC01CB01801B910BA20B4F
:1019A000B30B813C9742A940B105D0F060E0CE0175
:1019B0000E94350A63E5CE010E94350A66E4CE0135
:1019C0000E94350A60E5CE010E94350A6BE3CE0124
:1019D0000E94350ACE010E94A40C91E08F3409F0D8
:1019E00090E0892FDF91CF911F910F910895BF92C1
:1019F000CF92DF92EF92FF920F931F93CF93DF93DB
:101A0000EC01D62EC72EE42E0E94BB0CF82E8111BD
:101A100002C0F12C34C00E946F036C8F7D8F8E8FBB
:101A20009F8F60E0CE010E94350A63E5CE010E94DF
:101A3000350A66E4CE010E94350A6DE4CE010E94AB
:101A4000350A6E2DCE010E94350ABD2C0D2D1C2DA0
:101A5000802F8B198E1538F4F80161918F01CE011A
:101A60000E94350AF5CF6BE3CE010E94350ACE0104
:101A70000E94A40C8F3469F6CE010E94A40C8F2D15
:101A8000DF91CF911F910F91FF90EF90DF90CF905A
:101A9000BF9008951F93CF93DF93EC01162F60E062
:101AA0000E94350A63E5CE010E94350A66E4CE0144
:101AB0000E94350A67E4CE010E94350A812F66E054
:101AC0000E941015692FCE010E94350A6BE3CE01EA
:101AD0000E94350ACE010E94A40C91E08F3409F0D7
:101AE00090E0892FDF91CF911F9108950F931F935D
:101AF000FC010FEF1FEF98010083118322833383D2
:101B000010861186128613864FEF59EC6AE97BE343
:101B1000408B518B628B738B408F518F628F738F91
:101B200040A351A362A373A340A751A762A773A7C1
:101B300040AB51AB62AB73AB00AF11AF22AF33AF71
:101B4000DC01A05CBF4F8FEF90E011969C938E93C9
:101B500014960D931D932D933C93139718960D9304
:101B60001D932D933C93139718961C9211961C92DB
:101B7000509682E08C9311961C9211961C921196AD
:101B80001C9211961D921D921D921C9213971496F1
:101B900011961C921E9212961D921C92EA5AFF4FA9
:101BA00010821F910F9108952FEB260F862F9927F2
:101BB00087FD9095263010F4C797089561566630DA
:101BC00018F4875591090895C09708950F931F93AE
:101BD000FB0160E070E0CB01019120ED200F2A3085
:101BE000A0F4AAE0B0E09B01AC010E9458151127B7
:101BF00007FD1095212F312F600F711F821F931F3A
:101C00006053710981099109E7CF1F910F910895E0
:101C10000F931F93CF93FC01EA5AFF4FC1E020813D
:101C20002D3219F0C0E08F0103C08C01095A1F4FFB
:101C3000B8010E94E60D9B01AC01A4E6B0E00E9451
:101C40005815F801DF01219130ED320F3A30D0F311
:101C50002E3269F511962C91119730ED320F3A30F2
:101C600030F5332727FD3095205331094AE0429F54
:101C70008001439F100D1124222717FD2095322F3C
:101C8000600F711F821F931F12960C9120ED200F81
:101C90002A3068F4112707FD1095005311092227F7
:101CA00017FD2095322F600F711F821F931FCC23C9
:101CB00039F090958095709561957F4F8F4F9F4F2C
:101CC000CF911F910F9108954F925F926F927F92E3
:101CD0008F929F92AF92BF92CF92DF92EF92FF923C
:101CE000CF93DF93EC01CA5ADF4FBE010E94E60D8D
:101CF0002B013C0124E630E040E050E00E9430152A
:101D00009B01AC0160EA76E881E090E00E9400155A
:101D10006B017C01FE01819190ED980F9A30D8F310
:101D20008E3219F5EF0180E1882E87E2982EA12CE2
:101D3000B12CA99180ED8A0F8A30B8F4BB27A7FD9A
:101D4000B095D097A50194010E946315C60ED71EC9
:101D5000E81EF91EC501B4012AE030E040E050E081
:101D60000E94301549015A01E4CFC701B6016D5FE9
:101D70007F4F8F4F9F4F26E030E040E050E00E94C1
:101D8000301569017A01C301B20124E630E040E078
:101D900050E00E94301560E472E48FE090E00E9411
:101DA0000015C60ED71EE81EF91EC701B601DF9149
:101DB000CF91FF90EF90DF90CF90BF90AF909F902A
:101DC0008F907F906F905F904F900895DB01FA01A4
:101DD0008D91882319F091918917D1F3992787FD67
:101DE00090950895CF92DF92EF92FF921F93CF9339
:101DF000DF93EC01FC01EB5AFF4F1081112309F432
:101E0000A9C0319660810E94D40D182FFE01E95AB5
:101E1000FF4F6081CE010E94D40D40E1149F800DE0
:101E20001124FE01EC5AFF4F908189138AC07496E9
:101E30001081112309F458C1359680819181019652
:101E400091838083B59780819181A281B3813497FA
:101E500080839183A283B3833C9680819181A28108
:101E6000B381349780839183A283B38379968081F1
:101E70008823A1F1813009F037C18C819D81AE8129
:101E8000BF8188839983AA83BB838C859D85AE851A
:101E9000BF8588879987AA87BB878C899D89AE89EA
:101EA000BF89888B998BAA8BBB8B8C8D9D8DAE8DBA
:101EB000BF8D888F998FAA8FBB8F8CA59DA5AEA54E
:101EC000BFA588A799A7AAA7BBA78CA99DA9AEA9BA
:101ED000BFA988AB99ABAAABBBAB06C18CA19DA136
:101EE000AEA1BFA188A399A3AAA3BBA38C819D8106
:101EF000AE81BF8188839983AA83BB838C899D89A6
:101F0000AE89BF89888B998BAA8BBB8B8C8D9D8D5D
:101F1000AE8DBF8D888F998FAA8FBB8FFE01E05C3D
:101F2000FF4FDE01AE5BBF4F8D919C91918380830B
:101F30008CAD9DADAEADBFAD88AF99AFAAAFBBAF15
:101F4000D3C0C159DF4F88819981019699838883D5
:101F500010E0CAC0FC01EA59FF4F30818B599F4FF6
:101F60007C0131111DC06E0196E5C90ED11C4FE5F3
:101F700051E0B601CE010E94E60E892B11F481E0FA
:101F80000CC045E651E0B601CE010E94E60E892B59
:101F900019F4F7011082A8C082E0D7018C93A4C085
:101FA000DC01EC91E23009F49FC0CE018A5A9F4FC8
:101FB000DC012C91222309F497C0B0E2EB9FF001E1
:101FC0001124E32B3197E932F10508F08DC0EC5C68
:101FD000FF4F0C945215CE010E94080E6C837D8336
:101FE0008E839F830E946F03C85BDF4F12C0C85966
:101FF000DF4F81E0213409F05DC05DC0CE010E9459
:10200000640E6C8B7D8B8E8B9F8B0E946F03C05BED
:10201000DF4F688379838A839B8366C0233509F009
:1020200063C08C899D89AE89BF89B095A095909534
:1020300081959F4FAF4FBF4F8C8B9D8BAE8BBF8BCE
:1020400053C0CE010E94640E6C8F7D8F8E8F9F8F48
:102050004BC0273509F048C08C8D9D8DAE8DBF8D4E
:10206000B095A095909581959F4FAF4FBF4F8C8FA6
:102070009D8FAE8FBF8F38C0CE010E94080E6CA717
:102080007DA78EA79FA730C0CE010E94080E6CAB23
:102090007DAB8EAB9FAB28C0BC01CE010E94E60D8C
:1020A0006C877D878E879F871FC0C859DF4F81E06F
:1020B00021330CF480E0888317C00E945311CE5B5B
:1020C000DF4F9927998388830FC0CE010E94080EA5
:1020D0006CAF7DAF8EAF9FAF07C0CE010E94080EE0
:1020E0006CA37DA38EA39FA3812FDF91CF911F911E
:1020F000FF90EF90DF90CF900895CF92DF92EF9214
:10210000FF920F931F93CF93DF931F92CDB7DEB74C
:102110006C01262FFC01E759FF4F408151816281FC
:1021200073814F5F5F4F6F4F7F4F40835183628357
:1021300073838C0109591F4F8B5A9F4F7C012432A6
:1021400081F12CF42A3069F02D30E9F50AC02A32E9
:1021500041F02C32C1F5F601EC5AFF4F8081822705
:102160008083F80180818F3060F4F601E80FF11D63
:10217000EA5AFF4F1082C60129830E94F20E29817C
:1021800001C080E0F601EA59FF4F90819F5F908384
:10219000F801108291E02A3209F090E0F701908373
:1021A0002AC0F8011082F601EA59FF4F1082729797
:1021B0001082719682E08083F7011082F601E8595F
:1021C000FF4F108217C0F80180818E3048F491E0F3
:1021D000980F9083F601E80FF11DEA5AFF4F208314
:1021E000F7018081811106C0F601EC5AFF4F808112
:1021F0008227808380E00F90DF91CF911F910F9114
:10220000FF90EF90DF90CF900895CF92DF92EF9202
:10221000FF920F931F93CF93DF93E901611571052F
:1022200051F0FC01C088D188E288F388FB01C082AC
:10223000D182E282F3824115510551F0FC01C08C3C
:10224000D18CE28CF38CFA01C082D182E282F382DB
:10225000209701F18C01045B1F4FF801808191816F
:10226000A281B3818F3F9F4FAF4FBF4F61F00E945C
:102270006F03F8010081118122813381601B710B92
:10228000820B930B03C06FEF7FEFCB0168837983E1
:102290008A839B83DF91CF911F910F91FF90EF90E5
:1022A000DF90CF900895FC0188279927E894219129
:1022B0002032E9F3293010F02E30C8F32B3241F0F0
:1022C0002D3239F4689404C00E947411820F911D5C
:1022D000219120532A30C0F31EF4909581959F4F91
:1022E0000895F8940C948E157AE0979F902D879F0F
:1022F000802D910D112408955058BB27AA270ED088
:102300009AC18BD130F090D120F031F49F3F11F47D
:102310001EF45BC10EF4E095E7FB51C1E92F9CD19F
:1023200080F3BA17620773078407950718F071F4F2
:102330009EF5B4C10EF4E0950B2EBA2FA02D0B0123
:10234000B90190010C01CA01A0011124FF27591BFA
:1023500099F0593F50F4503E68F11A16F040A22F00
:10236000232F342F4427585FF3CF46953795279571
:10237000A795F0405395C9F77EF41F16BA0B620B70
:10238000730B840BBAF09150A1F0FF0FBB1F661FB7
:10239000771F881FC2F70EC0BA0F621F731F841FFA
:1023A00048F4879577956795B795F7959E3F08F020
:1023B000B3CF9395880F08F09927EE0F97958795DF
:1023C0000895D9D008F481E008950CD034C12CD1FF
:1023D00040F023D130F021F45F3F19F0F0C05111EB
:1023E0005EC1F3C039D198F39923C9F35523B1F3F2
:1023F000951B550BBB27AA2762177307840738F074
:102400009F5F5F4F220F331F441FAA1FA9F333D0D2
:102410000E2E3AF0E0E830D091505040E695001C86
:10242000CAF729D0FE2F27D0660F771F881FBB1F42
:10243000261737074807AB07B0E809F0BB0B802D1C
:10244000BF01FF2793585F4F2AF09E3F510568F068
:10245000B6C025C15F3FECF3983EDCF386957795D7
:102460006795B795F7959F5FC9F7880F911D96956A
:10247000879597F90895E1E0660F771F881FBB1FC6
:10248000621773078407BA0720F0621B730B840B73
:10249000BA0BEE1F88F7E095089504D06894B11147
:1024A000FEC00895E1D088F09F5790F0B92F99278A
:1024B000B751A0F0D1F0660F771F881F991F1AF04F
:1024C000BA95C9F712C0B13081F0E8D0B1E00895F3
:1024D000E5C0672F782F8827B85F39F0B93FCCF374
:1024E000869577956795B395D9F73EF49095809545
:1024F000709561957F4F8F4F9F4F0895E89409C065
:1025000097FB3EF490958095709561957F4F8F4F26
:102510009F4F9923A9F0F92F96E9BB279395F6953C
:10252000879577956795B795F111F8CFFAF4BB0FBA
:1025300011F460FF1BC06F5F7F4F8F4F9F4F16C01E
:10254000882311F096E911C0772321F09EE8872FA8
:10255000762F05C0662371F096E8862F70E060E064
:102560002AF09A95660F771F881FDAF7880F9695DD
:10257000879597F90895990F0008550FAA0BE0E881
:10258000FEEF16161706E807F907C0F01216130635
:10259000E407F50798F0621B730B840B950B39F475
:1025A0000A2661F0232B242B252B21F408950A26DB
:1025B00009F4A140A6958FEF811D811D089597F91B
:1025C0009F6780E870E060E008959FEF80EC0895D9
:1025D000DF93CF931F930F93FF92EF92DF927B01D4
:1025E0008C01689405C0DA2EEF0176D0FE01E894E4
:1025F000A5912591359145915591AEF3EF018EDE70
:10260000FE019701A801DA9479F7DF90EF90FF902F
:102610000F911F91CF91DF91089500240A9416160F
:10262000170618060906089500240A9412161306C0
:10263000140605060895092E0394000C11F488234E
:1026400052F0BB0F40F4BF2B11F460FF04C06F5F6A
:102650007F4F8F4F9F4F089557FD9058440F551F40
:1026600059F05F3F71F04795880F97FB991F61F014
:102670009F3F79F087950895121613061406551F8B
:10268000F2CF4695F1DF08C0161617061806991FF7
:10269000F1CF86957105610508940895E894BB27EC
:1026A00066277727CB0197F9089565DF08F48FEF48
:1026B00008959B01AC0160E070E080E89FE385CE67
:1026C0000BD0B9CFAADF28F0AFDF18F0952309F0BF
:1026D00076CF7BCF1124E3CFBFDFA0F3959FD1F35B
:1026E000950F50E0551F629FF001729FBB27F00DC0
:1026F000B11D639FAA27F00DB11DAA1F649F662715
:10270000B00DA11D661F829F2227B00DA11D621F63
:10271000739FB00DA11D621F839FA00D611D221F1D
:10272000749F3327A00D611D231F849F600D211D01
:10273000822F762F6A2F11249F5750408AF0E1F0A4
:1027400088234AF0EE0FFF1FBB1F661F771F881FED
:1027500091505040A9F79E3F510570F030CF9FCF68
:102760005F3FECF3983EDCF3869577956795B795D8
:10277000F795E7959F5FC1F7FE2B880F911D969502
:10278000879597F90895FA01EE0FFF1F30962105FE
:10279000310599F16115710561F48038BFE39B073C
:1027A00049F168949038810561F08038BFEF9B074C
:1027B00041F0992342F5FF3FE1053105210511F173
:1027C000E8940894E795D901AA2329F4AB2FBE2FEA
:1027D000F85FD0F310C0FF5F70F4A695E0F7F7390B
:1027E00050F019F0FF3A38F49F779F930CD00F9078
:1027F00007FC905808953EF0E8CE60E070E080E875
:102800009FE308954FE79F775F934F933F932F93F5
:1028100084D02F913F914F915F9152DF09C0ABDE81
:10282000880B990B089519F40EF0C9CE37CFCDCE91
:102830001BDFC8F39638C0F707F80F92E8942BE334
:102840003AEA48EB5FE74ADF0F920F920F924DB7DB
:102850005EB70F92A2D0EAEBF0E0BADE4F915F9143
:10286000EF91FF91E595EE1FFF1F49F0FE57E068DD
:102870004427EE0F441FFA95E1F74195550B14D00C
:102880000F9007FE16CF08959F3F31F0915020F42E
:10289000879577956795B795880F911D969587953C
:1028A00097F908958CCEF0CFDFDEE8F39923D9F3C2
:1028B000940F511DBBF39150504094F059F0882370
:1028C00032F0660F771F881F91505040C1F79E3F2E
:1028D000510544F7880F911D9695879597F90895AE
:1028E0005F3FACF0983E9CF0BB2786957795679547
:1028F000B79508F4B1609395C1F7BB0F58F711F481
:1029000060FFE8CF6F5F7F4F8F4F9F4FE3CFC7CE02
:102910000EF0BACF5ACE689452CEA6DEC8F39923F1
:10292000D1F3C6F3DF93CF931F930F93FF92C92F79
:10293000DD2788232AF02197660F771F881FDAF793
:1029400020E030E040E85FEB9FE3883920F0803EF4
:1029500030F021968F77D1DCE2EEF0E003C0CDDCE1
:10296000EFE0F1E035DE8B01BE01EC01FB2E6F578D
:1029700071097595771F880B990BC2DD28E132E745
:1029800041E35FE3A9DEAF2D9801AE01FF900F9107
:102990001F91CF91DF91C2DC4ECEFA01DC01AA0F6C
:1029A000BB1F9B01AC01BF5728F4222733274427C4
:1029B00050781FC0B75188F4AB2F00244695379547
:1029C0002795011CA395D2F3002069F0220F331F35
:1029D000441FB395DAF30DD08FCC61307105A0E8B8
:1029E0008A07B94630F49B01AC0166277727882710
:1029F0009078309621F02083318342835383089569
:102A0000DB018F939F930E945815BF91AF91A29FB6
:102A1000800D911DA39F900DB29F900D11240895DC
:102A2000991B79E004C0991F961708F0961B881F20
:102A30007A95C9F78095089597FB072E16F40094B0
:102A400007D077FD09D00E946B1507FC05D03EF436
:102A5000909581959F4F0895709561957F4F08954A
:102A6000A1E21A2EAA1BBB1BFD010DC0AA1FBB1F92
:102A7000EE1FFF1FA217B307E407F50720F0A21B04
:102A8000B30BE40BF50B661F771F881F991F1A9471
:102A900069F760957095809590959B01AC01BD019B
:102AA000CF010895EE0FFF1F0590F491E02D0994DA
:102AB0000E947F15A59F900DB49F900DA49F800D3F
:102AC000911D11240895B7FF0C9458150E945815B4
:102AD000821B930B0895AA1BBB1B51E107C0AA1FC1
:102AE000BB1FA617B70710F0A61BB70B881F991FAF
:102AF0005A95A9F780959095BC01CD010895A29FA4
:102B0000B001B39FC001A39F700D811D1124911DC1
:102B1000B29F700D811D1124911D089512E0C8E32C
:102B2000D2E004C0FE010E9454152296CC33D10796
:062B3000C9F7F894FFCF85
:102B360030750000016E6F20666978206F72206E16
:102B46006F2076616C696420646174610076616CE3
:102B560069642064617461206F627461696E656482
:102B6600006E616E00696E66006F7666002E00006C
:102B7600000000A507390551077A0761079A070083
:102B8600000000350A39057309380959098B0947C8
:102B960050524D43004750474741004E004E4E4568
:102BA60000454E45004553450053534500530053D9
:102BB60053570057535700574E57004E4E57000075
:00000001FF
